:060000000A128A110E280D
:10000800FE00030EF3000408F4000A08F5000A12C3
:100018008A111C280A128A111128F601F701F80121
:10002800F90183120313A50183010A128A11E92831
:10003800831203130C1F212822284B2832281E085C
:10004800F1007108F9001F15F60142281E08F10099
:100058007108F8001F11F601F60A42287608F10027
:10006800F2017208003A03193A2842287108003A46
:1000780003192A28013A0319232842280C13273088
:10008800F100F10B45284828831203139F148C1D97
:100098004E284F2872280A128A11F8200A128A114B
:1000A800F1007108F7007703031D5B285C286328BB
:1000B80079080A128A1108210A128A116F28023057
:1000C8007706031D682869286F2878080A128A119C
:1000D80008210A128A11831203138C1175088A00E9
:1000E80074088400730E8300FE0E7E0E09008316CA
:1000F8000317890103308800233083160313850012
:10010800183087008801890183120313850187014C
:1001180088018901831603130F178F160F160F1402
:100128000A128A11D0200A128A118B178B160B110A
:100138000B17831203138C11831603138C15851662
:100148000C17831203130C13A001A101A201243080
:100158000A128A11B2200A128A11080083120313A4
:10016800A30083160313871283120313231DBD28CC
:10017800BE28C42822088316031394008715CA28AA
:100188002008220483160313940087118312031393
:100198002308210494000800831603139F131F12D9
:1001A8009F12831203131F083F3980389F00C33002
:1001B8009F051F14413083120313A000A00BE228EF
:1001C800E528831203139F1408000A128A117B2062
:1001D8000A128A11013083120313A4002408A50708
:1001E800EE280A128A110E280A128A1101210A120F
:1001F8008A11831203131308080083160313141CAF
:100208000629072901290800F00070088312031342
:040218009300080047
:04400E00D420FF3F7C
:00000001FF
