:060000000A128A110E280D
:10000800FE00030EF3000408F4000A08F5000A12C3
:100018008A1119280A128A111128F601F701F80124
:10002800F90183010A128A11E828831203130C1FAD
:100038001E281F2848282F281E08F1007108F900DB
:100048001F15F6013F281E08F1007108F8001F115E
:10005800F601F60A3F287608F100F2017208003A24
:10006800031937283F287108003A03192728013A4D
:10007800031920283F280C132730F100F10B4228E0
:100088004528831203139F148C1D4B284C286F2876
:100098000A128A11F1200A128A11F1007108F70078
:1000A8007703031D58285928602879080A128A11ED
:1000B80001210A128A116C2802307706031D65286F
:1000C80066286C2878080A128A1101210A128A11F6
:1000D800831203138C1175088A0074088400730E48
:1000E8008300FE0E7E0E0900831603178901033074
:1000F80088000B30831603138500083086001830FB
:10010800870088018901831203138501870188010B
:100118008901831603130F178F160F160F140A126F
:100128008A11CF200A128A118B178B160B110B1705
:10013800831203138C11831603138C1586150C1761
:10014800831203130C13A001A101A20124300A1287
:100158008A11B1200A128A11080083120313A3001E
:1001680083160313871283120313231DBC28BD288B
:10017800C32822088316031394008715C92820086A
:100188002204831603139400871183120313230890
:10019800210494000800831603139F131F129F1253
:1001A800831203131F083F3980389F00C3309F050F
:1001B8001F14413083120313A000A00BE128E42888
:1001C800831203139F1408000A128A1178200A1256
:1001D8008A11ED280A128A110E280A128A11FA20A9
:1001E8000A128A11831203131308080083160313D3
:1001F800141CFF280029FA280800F0007008831250
:060208000313930008003F
:04400E00D420FF3F7C
:00000001FF
