:060000000A128A110E280D
:10000800FE00030EF8000408F9000A08FA000A12B4
:100018008A11052A0A128A1111280A128A119D24A6
:100028000A128A11C7000A128A119E240A128A111A
:10003800C800B901BA01BB01BC01BD01BE01BF01C5
:10004800C001C101C201C301C401C501C601FB0150
:10005800FC01FD0183010A128A1132280A128A1151
:10006800CC230A128A110A128A117B240A128A11D5
:10007800831203130510033083120313B000973063
:10008800AF00AF0B4528B00B45288312031348086F
:100098000A128A1197240A128A1183120313480339
:1000A800031D5728582867280A128A1187240A121C
:1000B8008A1183120313AF002F08C0000230AF006B
:1000C8002F08C800792802304806031D6C286D28BF
:1000D80079280A128A1187240A128A1183120313B3
:1000E800AF002F08C100C801C80A033083120313E8
:1000F800B0009730AF00AF0B7F28B00B7F2883127A
:1001080003130514033083120313B1008A30B000BF
:100118005530AF00AF0B8E28B00B8E28B10B8E2850
:10012800333083120313A6000030A7004108AF0044
:10013800B0012F08A8003008A9000A128A11632309
:100148000A128A11831203132608B1003108BF006E
:100158003330A6000030A7004108AF00B0012F08D7
:10016800A0003008A1006430A2000030A3000A12E9
:100178008A110A240A128A11831203132108A9007A
:100188002008A8000A128A1163230A128A1183120E
:1001980003132608B1002708B2003F08B300B401D2
:1001A8003308A0003408A1009C30A200FF30A3004F
:1001B8000A128A110A240A128A11831203132008C8
:1001C8003107B70021080318210A3207B8000A309E
:1001D800A6000030A7003808A9003708A8000A12AE
:1001E8008A1163230A128A11831203132608AF00A7
:1001F8002F08BB003330A6000030A7004108AF002D
:10020800B0012F08A0003008A1006430A20000301F
:10021800A3000A128A110A240A128A1183120313EC
:100228002108A9002008A8000A128A1163230A12CB
:100238008A11831203132608B1002708B2009C30E4
:10024800B3003308A0003F080A128A114F240A128B
:100258008A1183120313B400F630B5003508A000E4
:100268003B080A128A114F240A128A1183120313B7
:1002780034073107B6003608BA003330A60000301C
:10028800A7004008AF00B0012F08A8003008A90057
:100298000A128A1163230A128A1183120313260889
:1002A800B1003108BE003330A6000030A700400876
:1002B800AF00B0012F08A0003008A1006430A200F0
:1002C8000030A3000A128A110A240A128A11831222
:1002D80003132108A9002008A8000A128A11632321
:1002E8000A128A11831203132608B1002708B200E4
:1002F8003E08B300B4013308A0003408A1009C30C4
:10030800A200FF30A3000A128A110A240A128A11D5
:100318008312031320083107B70021080318210AA4
:100328003207B8000A30A6000030A7003808A90034
:100338003708A8000A128A1163230A128A11831245
:1003480003132608AF002F08BD003330A600003085
:10035800A7004008AF00B0012F08A0003008A10096
:100368006430A2000030A3000A128A110A240A127B
:100378008A11831203132108A9002008A8000A1271
:100388008A1163230A128A11831203132608B10003
:100398002708B2009C30B3003308A0003E080A12B8
:1003A8008A114F240A128A1183120313B400F630FB
:1003B800B5003508A0003D080A128A114F240A1218
:1003C8008A118312031334073107B6003608BC00BC
:1003D800881CEF29F029F729FB01C3018801C7010F
:1003E800C70AC601C50115304202031CFC29FD29B4
:1003F8003C28C201831603130C163C280A128A11E2
:100408000E280B1D082A092A102A0130F400740846
:1004180083120313C2070B11831203130C1E152A30
:10042800162A892A5E2A3F08303E9900B901B90A7E
:10043800882A2E3099000230F4007408B900882AFE
:100448003B08303E99000330F4007408B900882A4C
:100458003A08303E99000430F4007408B900882A3C
:100468002D3099000530F4007408B900882A3E0838
:10047800303E99000630F4007408B900882A2E30FE
:1004880099000730F4007408B900882A3D08303E06
:1004980099000830F4007408B900882A3C08303EF6
:1004A80099000930F4007408B900882A0D309900C1
:1004B800B901882A3908F400F501F41BF503750819
:1004C800003A0319682A882A7408003A0319172A77
:1004D800013A03191D2A033A0319242A013A031978
:1004E8002C2A073A0319342A013A03193B2A033AFA
:1004F8000319432A013A03194A2A0F3A0319522ABF
:10050800013A03195A2A882A0C128C1E8C2A8D2A21
:100518005A2B0D301A06031D922A932A972A43084C
:100528008600023088000D301A0603199C2A9D2A7D
:100538005A2B1A08F4007408FC0030307C06031D9E
:10054800A62AA72AA92AFB010A2B31307C06031DFB
:10055800AE2AAF2AB22AFB01FB0A0A2B32307C06EC
:10056800031DB72AB82ABD2A0230F4007408FB001C
:100578000A2B33307C06031DC22AC32AC82A03303B
:10058800F4007408FB000A2B34307C06031DCD2AC6
:10059800CE2AD32A0430F4007408FB000A2B353025
:1005A8007C06031DD82AD92ADE2A0530F4007408EF
:1005B800FB000A2B36307C06031DE32AE42AE92ACD
:1005C8000630F4007408FB000A2B37307C06031D44
:1005D800EE2AEF2AF42A0730F4007408FB000A2BED
:1005E80038307C06031DF92AFA2AFF2A0830F4005D
:1005F8007408FB000A2B39307C06031D042B052BDD
:100608000A2B0930F4007408FB000A2B4703031D6A
:100618000E2B0F2B1B2B7B08F4007408C3007B08E0
:10062800F4007408FD00C701C601C60A5A2B460328
:10063800031D1F2B202B382B0A30F4007408F00000
:100648007D080A128A1166240A128A117B07F500AE
:10065800750883120313C3007B08F4007408C400F0
:10066800C601C501C50A5A2B4503031D3C2B3D2B6A
:100678005A2B0A30F4007408F00044080A128A1150
:1006880066240A128A11F5006430F6007608F00034
:100698007D080A128A1166240A128A1175077B07D7
:1006A800F700770883120313C300342B7A088A00F3
:1006B80079088400780E8300FE0E7E0E09008312EE
:1006C8000313AC01A71F692B6A2B712BA609A70975
:1006D800A60A0319A70AAC01AC0AA91F742B752B2B
:1006E8007E2BA809A909A80A0319A90A0130AA009A
:1006F8002A08AC06AD01AE01260827040319852B8C
:10070800862BBD2BAB01AB0A942B01300310A60D31
:10071800A70DFF3E031D8A2B0130AA002A08AB074C
:10072800A71F972B982B892B01300310AD0DAE0D09
:10073800FF3E031D992B27082902031DA52B260818
:100748002802031CA82BA92BB02B2608A8022708CF
:10075800031CA903A9022D1401300310A70CA60C31
:10076800FF3E031DB12B0130AB02031DBC2BBD2B7B
:10077800982B2C080319C12BC22BC72BAD09AE0926
:10078800AD0A0319AE0A2E08A7002D08A600080016
:10079800831603130F178F160F160F1483160317DC
:1007A800890188018316031385018601903087002B
:1007B8008801890183120313850186018701880155
:1007C80089018B178B160B11831603131812181532
:1007D800831603178715CF308316031399009A01E0
:1007E80083120313981718131816831603139816F1
:1007F8000510831203130514A001A101A2012030E2
:100808000A128A1131240A128A110800831203136A
:10081800A401A501201C112C122C182C2208A407B5
:100828000318A50A2308A50701300310A20DA30D7C
:10083800FF3E031D192C01300310A10CA00CFF3E34
:10084800031D202C20082104031D2B2C2C2C0E2CDE
:100858002508A1002408A000080083120313A300A0
:1008680083160313871283120313231D3C2C3D2C7C
:10087800432C22088316031394008715492C20085B
:100888002204831603139400871183120313230889
:1008980021049400080083120313A300A201231C5F
:1008A800562C572C5B2C2008A1002108A207031006
:1008B800A00D0310A30C2308031D632C642C532CD8
:1008C80022080800F300F201731C6B2C6C2C702CAE
:1008D8007008F1007108F2070310F00D0310F30C13
:1008E8007308031D782C792C682C7208080083166D
:1008F800031381128111011581140114D930831257
:100908000313810008000A128A1190240A128A111E
:10091800831203131308080083160313141C952C61
:10092800962C902C080083120313A0002008930033
:0609380008000134013447
:04400E00D420FF3F7C
:00000001FF
