:060000000A128A110E280D
:10000800FE00030EF8000408F9000A08FA000A12B4
:100018008A11062A0A128A1111280A128A119E24A4
:100028000A128A11C7000A128A119F240A128A1119
:10003800C800B901BA01BB01BC01BD01BE01BF01C5
:10004800C001C101C201C301C401C501C601FB0150
:10005800FC01FD0183010A128A1132280A128A1151
:10006800CD230A128A110A128A117C240A128A11D3
:10007800831203130711033083120313B000973060
:10008800AF00AF0B4528B00B45288312031348086F
:100098000A128A1198240A128A1183120313480338
:1000A800031D5728582867280A128A1188240A121B
:1000B8008A1183120313AF002F08C0000230AF006B
:1000C8002F08C800792802304806031D6C286D28BF
:1000D80079280A128A1188240A128A1183120313B2
:1000E800AF002F08C100C801C80A033083120313E8
:1000F800B0009730AF00AF0B7F28B00B7F2883127A
:1001080003130715033083120313B1008A30B000BC
:100118005530AF00AF0B8E28B00B8E28B10B8E2850
:100128001530831203134202031C9B289C28A02825
:10013800C201831603130C1633308312A600003055
:10014800A7004108AF00B0012F08A8003008A90097
:100158000A128A1164230A128A11831203132608C9
:10016800B1003108BF003330A6000030A7004108B5
:10017800AF00B0012F08A0003008A1006430A20031
:100188000030A3000A128A110B240A128A11831262
:1001980003132108A9002008A8000A128A11642361
:1001A8000A128A11831203132608B1002708B20025
:1001B8003F08B300B4013308A0003408A1009C3004
:1001C800A200FF30A3000A128A110B240A128A1116
:1001D8008312031320083107B70021080318210AE6
:1001E8003207B8000A30A6000030A7003808A90076
:1001F8003708A8000A128A1164230A128A11831286
:1002080003132608AF002F08BB003330A6000030C8
:10021800A7004108AF00B0012F08A0003008A100D6
:100228006430A2000030A3000A128A110B240A12BB
:100238008A11831203132108A9002008A8000A12B2
:100248008A1164230A128A11831203132608B10043
:100258002708B2009C30B3003308A0003F080A12F8
:100268008A1150240A128A1183120313B400F6303B
:10027800B5003508A0003B080A128A1150240A125A
:100288008A118312031334073107B6003608BA00FF
:100298003330A6000030A7004008AF00B0012F0897
:1002A800A8003008A9000A128A1164230A128A11C8
:1002B800831203132608B1003108BE003330A600AC
:1002C8000030A7004008AF00B0012F08A000300898
:1002D800A1006430A2000030A3000A128A110B2486
:1002E8000A128A11831203132108A9002008A80002
:1002F8000A128A1164230A128A1183120313260828
:10030800B1002708B2003E08B300B4013308A000CA
:100318003408A1009C30A200FF30A3000A128A1101
:100328000B240A128A118312031320083107B7001D
:1003380021080318210A3207B8000A30A600003045
:10034800A7003808A9003708A8000A128A116423F0
:100358000A128A11831203132608AF002F08BD0062
:100368003330A6000030A7004008AF00B0012F08C6
:10037800A0003008A1006430A2000030A3000A12D7
:100388008A110B240A128A11831203132108A90067
:100398002008A8000A128A1164230A128A118312FB
:1003A80003132608B1002708B2009C30B3003308B5
:1003B800A0003E080A128A1150240A128A118312D8
:1003C8000313B400F630B5003508A0003D080A1242
:1003D8008A1150240A128A11831203133407310731
:1003E800B6003608BC00881CFA29FB293C28FB010A
:1003F800C3018801C701C70AC601C5013C280A1202
:100408008A110E280B1D092A0A2A112A0130F40024
:10041800740883120313C2070B11831203138C1E73
:10042800162A172AE42A0D301A06031D1C2A1D2A2B
:10043800212A43088600023088000D301A06031965
:10044800262A272AE42A1A08F4007408FC00303007
:100458007C06031D302A312A332AFB01942A3130C5
:100468007C06031D382A392A3C2AFB01FB0A942AF8
:1004780032307C06031D412A422A472A0230F40002
:100488007408FB00942A33307C06031D4C2A4D2A3D
:10049800522A0330F4007408FB00942A34307C0696
:1004A800031D572A582A5D2A0430F4007408FB00FB
:1004B800942A35307C06031D622A632A682A05308F
:1004C800F4007408FB00942A36307C06031D6D2A5C
:1004D8006E2A732A0630F4007408FB00942A373019
:1004E8007C06031D782A792A7E2A0730F4007408CE
:1004F800FB00942A38307C06031D832A842A892A23
:100508000830F4007408FB00942A39307C06031D77
:100518008E2A8F2A942A0930F4007408FB00942A42
:100528004703031D982A992AA52A7B08F400740812
:10053800C3007B08F4007408FD00C701C601C60AA1
:10054800E42A4603031DA92AAA2AC22A0A30F4006B
:100558007408F0007D080A128A1167240A128A11A9
:100568007B07F500750883120313C3007B08F400AA
:100578007408C400C601C501C50AE42A4503031D61
:10058800C62AC72AE42A0A30F4007408F00044088E
:100598000A128A1167240A128A11F5006430F600DB
:1005A8007608F0007D080A128A1167240A128A1157
:1005B80075077B07F700770883120313C300BE2A69
:1005C8000C1EE72AE82A5B2B302B3F08303E9900A7
:1005D800B901B90A5A2B2E3099000230F400740878
:1005E800B9005A2B3B08303E99000330F4007408D8
:1005F800B9005A2B3A08303E99000430F4007408C8
:10060800B9005A2B2D3099000530F4007408B90050
:100618005A2B3E08303E99000630F4007408B900A1
:100628005A2B2E3099000730F4007408B9005A2B61
:100638003D08303E99000830F4007408B9005A2B80
:100648003C08303E99000930F4007408B9005A2B70
:100658000D309900B9015A2B3908F400F501F41B43
:10066800F5037508003A03193A2B5A2B7408003A17
:100678000319E92A013A0319EF2A033A0319F62A5A
:10068800013A0319FE2A073A0319062B013A0319FE
:100698000D2B033A0319152B013A03191C2B0F3A9A
:1006A8000319242B013A03192C2B5A2B0C127A0804
:1006B8008A0079088400780E8300FE0E7E0E0900F9
:1006C80083120313AC01A71F6A2B6B2B722BA6098D
:1006D800A709A60A0319A70AAC01AC0AA91F752B1A
:1006E800762B7F2BA809A909A80A0319A90A0130A2
:1006F800AA002A08AC06AD01AE0126082704031992
:10070800862B872BBE2BAB01AB0A952B0130031030
:10071800A60DA70DFF3E031D8B2B0130AA002A084A
:10072800AB07A71F982B992B8A2B01300310AD0D0F
:10073800AE0DFF3E031D9A2B27082902031DA62B89
:1007480026082802031CA92BAA2BB12B2608A802CD
:100758002708031CA903A9022D1401300310A70CB4
:10076800A60CFF3E031DB22B0130AB02031DBD2BAF
:10077800BE2B992B2C080319C22BC32BC82BAD09F0
:10078800AE09AD0A0319AE0A2E08A7002D08A60067
:100798000800831603130F178F160F160F148316EE
:1007A8000317890188018316031385018601903098
:1007B8008700880189018312031385018601870157
:1007C800880189018B178B160B11831603131812D6
:1007D8001815831603178715CF308316031399004E
:1007E8009A01831203139817181318168316031304
:1007F80098160711831203130715A001A101A2017E
:1008080020300A128A1132240A128A11080083122F
:100818000313A401A501201C122C132C192C220847
:10082800A4070318A50A2308A50701300310A20D81
:10083800A30DFF3E031D1A2C01300310A10CA00CC0
:10084800FF3E031D212C20082104031D2C2C2D2CD8
:100858000F2C2508A1002408A00008008312031308
:10086800A30083160313871283120313231D3D2C41
:100878003E2C442C220883160313940087154A2C17
:10088800200822048316031394008711831203138C
:10089800230821049400080083120313A300A20173
:1008A800231C572C582C5C2C2008A1002108A207D7
:1008B8000310A00D0310A30C2308031D642C652C42
:1008C800542C22080800F300F201731C6C2C6D2CC8
:1008D800712C7008F1007108F2070310F00D031075
:1008E800F30C7308031D792C7A2C692C7208080004
:1008F8008316031381128111011581140114D93053
:1009080083120313810008000A128A1191240A1223
:100918008A11831203131308080083160313141C87
:10092800962C972C912C080083120313A000200802
:080938009300080001340134B2
:04400E00D420FF3F7C
:00000001FF
